:03000000021D02DC
:0C1D0200787FE4F6D8FD758121021D49B0
:100026004B532043414C454E4441522032303234EA
:1000360000C4D6D6D3CAB1BCE43A20202020202062
:100046002000B0B4CFC2204B3420B7B5BBD8D6F70A
:10005600D2B30020202020C4D6D6D3CCE1D0D120E4
:10006600202020002121212121212121212121219E
:1000760021212121002020BEAFB1A82121BEAFB190
:10008600A821212020002020D2C9CBC6BBF0D4D67F
:10009600212120202020002020B0B4CFC253573188
:1000A60020BCFCBCCCD0F8004B32D1A1D6D020204D
:1000B60020204B31BDF8C8EB00312EBBF9B4A1CFDF
:1000C600D4CABE20202020202000322ED0DEB8C484
:1000D600CAB1BCE420202020202000332EC9E8D657
:1000E600C3C4D6D6D320202020202000312EBBF931
:1000F600B4A1CFD4CABE20202020D1A100322ED058
:10010600DEB8C4CAB1BCE420202020D1A100332E21
:10011600C9E8D6C3C4D6D6D320202020D1A1003426
:100126002EC9E8D6C3C1E5C9F920202020D1A100F7
:10013600342EC9E8D6C3C1E5C9F9202020202020E5
:1001460000352EBBF1C8A1CCECC6F820202020D16A
:10015600A100352EBBF1C8A1CCECC6F8202020208A
:10016600202000362ECAC2CFEECCE1D0D1202020EE
:1001760020D1A100362ECAC2CFEECCE1D0D12020AC
:100186002020202000372EB7B5BBD82020202020E5
:10019600202020D1A100C7EBC1ACBDD3CAD6BBFA83
:1001A60041707020202000C7E7C0CACCECC6F820FA
:1001B6002020202020202000B6E0D4C6CCECC6F8B3
:1001C600202020202020202000C9D9D4C6CCECC66F
:1001D600F8202020202020202000C7E7BCE4B6E03D
:1001E600D4C6202020202020202000D2F5CCEC20D0
:1001F60020C4CFB7E720202020202000D5F3D3EA63
:1002060020202020202020202020202000C7BFD50D
:10021600F3D3EA2020202020202020202000C0D751
:10022600D5F3D3EA2020202020202020202000C73C
:10023600BFC0D7D5F3D3EA202020202020202000DD
:10024600D0A1D3EA202020202020202020202020FA
:1002560000D6D0D3EA2020202020202020202020D5
:100266002000B4F3D3EA20202020202020202020C4
:10027600202000B1A9D3EA20202020202020202001
:1002860020202000B4F3B1A9D3EA2020202020208A
:1002960020202020002020D3EA20202020202020FB
:1002A6002020202020002020C9FA202020202020E5
:1002B6002020202020200020202020CAC2CFEECCE3
:1002C600E1D0D1202020200020202020C9FAC8D546
:1002D600CCE1D0D1202020200020202020BBE1D25C
:1002E600E9CCE1D0D120202020002020D7F7D2B5BC
:1002F600BDD8D6B9CCE1D0D120200020202020CAFC
:10030600B5D1E9CCE1D0D12020202000BCD7D2D273
:10031600B1FBB6A1CEECBCBA2020D0C1C8C9B9EF9A
:10032600D7D3B3F3D2FAC3AEB3BDCBC8CEE7CEB400
:10033600C9EAD3CFD0E7BAA5D5B6FEC8FECBC4CEA0
:10034600E5C1F9C6DFB0CBBEC5CAAEB6ACC0B0001B
:10035600B3F5CAAED8A5D2BBB6FEC8FECBC4CEE5B1
:10036600C1F9C6DFB0CBBEC5CAAED0A1BAAEB4F332
:10037600BAAEC1A2B4BAD3EACBAEBEAAD5DDB4BA80
:10038600B7D6C7E5C3F7B9C8D3EAC1A2CFC4D0A1CF
:10039600C2FAC3A2D6D6CFC4D6C1D0A1CAEEB4F390
:1003A600CAEEC1A2C7EFB4A6CAEEB0D7C2B6C7EFAF
:1003B600B7D6BAAEC2B6CBAABDB5C1A2B6ACD0A1AD
:1003C600D1A9B4F3D1A9B6ACD6C1D2BBB6FEC8FE8C
:1003D600CBC4CEE5C1F9C8D520202020202020207E
:1003E6002020202020202020202020202020202007
:1003F6002020202020202020D4C2202020202020A1
:1004060020202020202020202020D6DCC8FECAAEB6
:101E5B00EE93FD747E2EF8EDF275F002EFA42EF5E5
:101E6B0082E435F0F583E582227DFE7BFF7E007FE9
:101E7B00020207F4FFC4540F2430F2EF540F243046
:101E8B0008F2227DFE7BFF7E007F100207F4786E46
:101E9B00E2FE08E2FF08E2FD22E2FDC4540F75F0FA
:101EAB000AA422789FE2FE08E2FF7C007D64020810
:011EBB0079AD
:0911CA0012224B1220911221EBBC
:1011D300785A7C007A0379DE121E8E121C6A7BFE1B
:1011E3007A00793E7F01121DF57BFE7A0079007F3C
:1011F30002121DF5121A527F03121DF57A00792689
:101203007F04121365BF010512100041827859E271
:101213006402700AFE1213047858E2FF800F7859B3
:10122300E2B4030E7F0A7E001220D37F1312134E03
:0C123300804D7859E2640470461220914E
:10123F007819E2785A121E7F08743AF27818E27819
:10124F005D121E7F08743AF27817E2FFC4540F2420
:10125F00307860121E857BFF7A0079377F01121D6F
:10126F00F57BFE7A00795A7F0212133C786AEFF20F
:03127F00BF04BDEC
:10128200122182EF60317E001213047858E2FF12BD
:10129200134E7A00795912135B7A00796A7F02122F
:1012A2001DF57BFF7A00796A7F0312133C7859EFB0
:1012B200F2BF04DE12132630910221D31222DE3055
:1012C200910221D37F0A7E001220D37F077E001273
:1012D20020D37F0B7E001220D37F011222E712203F
:1012E200917A00797B12135B7A00798C7F02121D4E
:1012F200F57A00799D7F03121365BF01E41213266C
:0213020021D3F5
:101304007F0A1220D37F017E001220D37F057E0046
:101314001220D37F0C7E001220D37F0A7E0012207D
:10132400D3227F0A7E001220D37F137E001220D3A3
:101334007F0B7E001220D322121DF57BFF7A0079E9
:10134400487F04121DF5121F1D227E001220D37F38
:101354000B7E001220D3227BFF7F01121DF57BFF41
:0E136400227BFF121DF5121F1D7859EFF22299
:1009BF0078767C007A0379EE121E8E78867C007A28
:1009CF000379FE121E7478897C007DFE7BFF7A040A
:1009DF007900121E9278997C007A047910121E7495
:1009EF00789B7C007DFE7BFF7A047912121E78784B
:1009FF009D7C007DFE7BFF7A047914121E781220F5
:100A0F0091121C6A7816121EA424D0FFE5F0340749
:100A1F00FEED540F7C002FFFEC3EFE786EF208EFD8
:100A2F00F27814121EA4FCED540F2C7870F2781388
:100A3F00121EA4FCED540F2C7871F2EF24FDFBEE87
:100A4F0034FFFA7C007D0AAF03FE1208797872ED4D
:100A5F00F27C007D0CAF03AE021208797873EDF2D1
:100A6F0018E27003740AF27873E27003740CF212D6
:100A7F001E9978A374FEF2087400F2087474F27869
:100A8F0071E2FB12214F121E9908E2FB122000782F
:100A9F0088EFF2121E9908E2FB121B1AE4FE7499FA
:100AAF002EF8E2FD7489121E6024D0F582E583349E
:100ABF0003F583E493FD748B2EF8EDF20EEEB40282
:100ACF00DDE4FE7872E275F002121E682410F582E2
:100ADF00E5833403F583E493FF74762EF8EFF27811
:100AEF0073E275F002121E682424F582E583340345
:100AFF00F583E493FF74782EF8EFF27874E275F0D3
:100B0F0002121E68243BF582E5833403F583E493D8
:100B1F00FF747A2EF8EFF274862EF8E2FF747C2EB3
:100B2F00F8EFF27875E2FFD3940A50109003561243
:100B3F001E5B245AF582E583340380317875E2FF1A
:100B4F00D394135010900358121E5B2446F582E580
:100B5F0083340380187875E2FFD3941D5015EE90FF
:100B6F00035A121E5C2432F582E5833403F583E4C5
:100B7F009380177875E2B41E18749B2EF8E2FF74F9
:100B8F007E2EF8EFF2749D2EF8E2FF74802EF8EFB0
:100B9F00F20EEE6402600241D27888E26050E2FF0A
:100BAF0025E025E02470F582E43403F583E493789F
:100BBF0082F2EF25E025E02471F582E43403F5831A
:100BCF00E49308F27888E2FF25E025E02472F582AD
:100BDF00E43403F583E4937884F2EF25E025E024F1
:100BEF0073F582E43403F583E49308F2800B788283
:100BFF007420F208F208F208F27BFE7A00793E7F49
:100C0F0001121DF57BFE7A0079007F02121DF57B24
:100C1F00FE7A0079767F03121DF57BFE7A007989C3
:100C2F007F04121DF5121F1DEF6404600241102294
:091B1A00789FEEF208EFF2AA0533
:101B2300EA64016004EAB4020F740C2AFA78A0E2B2
:101B330024FFF218E234FFF2121EAE78A1EEF2088F
:101B4300EFF2121EAE8D828C83EA2401FFE433FE92
:101B53007C007D031208677D05120879AC06AD078A
:101B6300EA75F002A47A002BFFEA35F0CF2DCF3CC3
:101B7300FEEF2582FDEE3583FCAE83E5827802CE4F
:101B8300C313CE13D8F92DFDEC3EFC78A1E2FA087D
:101B9300E2FBAE027802CEC313CE13D8F92DFDECCF
:101BA3003EFCEB25E0FFEA33FEC3ED9FFFEC9EFE18
:101BB3007C007D07120879AF05EFC39400500474CD
:031BC300072FFFEA
:011BC60022FC
:10100000786B7401F208F21220911222EF121F1D68
:10101000786DEFF264017050786BE2FF64016064F8
:10102000EFB402051209BF805B786BE2B4030512CE
:101030000E738050786BE2B4040512137280457809
:101040006BE2B405051216CB803A786BE2B4060564
:101050001215CF802F786BE2B40705121F79802418
:10106000786BE26408701D22786DE2FFB4020E789E
:101070006BE204F2E2B4090C7401F28007EF64033E
:1010800070022170786BE26401700B1211B67BFF65
:101090007A0079BF8010786BE2640270161211B684
:1010A0007BFF7A0079F27F02121DF57BFF7A0079CF
:1010B000D0800E786BE2640370101211717A01799E
:1010C000031211C27A0079E12169786BE26404703D
:1010D000101211717A0079D01211C27A017914219B
:1010E00069786BE26405701B7BFF7A0079BF7F0132
:1010F000121DF57F021211A27F0312118A7A017963
:10110000252169786BE26406701B7F011211A27FB2
:101110000212118A7A0179367F03121DF57BFF7A5C
:101120000179478044786BE26407701B7BFF7A008B
:1011300079E17F01121DF57F021211AC7F031211BC
:10114000967A0179698022786BE264086002010A6C
:101150007F011211AC7F021211967A01797A7F0316
:10116000121DF57BFF7A01798B7F04121DF5010AB0
:10117000227BFF7A0079AE7F01121DF57BFF7A009A
:1011800079BF7F02121DF57BFF227BFF7A0079E198
:10119000121DF57BFF227BFF7A017958121DF57B2A
:1011A000FF227BFF7A0079D0121DF5227BFF7A01A6
:1011B0007936121DF5227BFF7A0079AE7F01121D70
:0A11C000F5227F03121DF57BFF22CC
:1015CF001220917BFF7A01799C7F01121DF57857CC
:1015DF00E2B419087BFF7A0179ADC1BB7857E2B449
:1015EF001A087BFF7A0179BEC1BB7857E2B41B089A
:1015FF007BFF7A0179CFC1BB7857E2B41C087BFF20
:10160F007A0179E0C1BB7857E2B41D087BFF7A01FC
:10161F0079F1C1BB7857E2B41E087BFF7A027902D9
:10162F00C1BB7857E2B41F087BFF7A027913807C25
:10163F007857E2B420087BFF7A027924806E7857BE
:10164F00E2B421087BFF7A02793580607857E2B4E3
:10165F0022087BFF7A02794680527857E2B423083A
:10166F007BFF7A02795780447857E2B424087BFFD6
:10167F007A02796880367857E2B425087BFF7A02C0
:10168F00797980287857E2B426087BFF7A02798A25
:10169F00801A7857E2B427087BFF7A02799B800C77
:1016AF007857E2B4320B7BFF7A0279AC7F03121DBD
:0C16BF00F5121F1DEF64046002A1D2228E
:101F79001220917BFF7A0279BD7F01121DF57857F6
:101F8900E2B432087BFF7A0279CE80287857E2B42E
:101F990033087BFF7A0279DF801A7857E2B4340874
:101FA9007BFF7A0279F0800C7857E2B4350B7BFF1E
:101FB9007A0379017F03121DF5121F1DEFB404B3D3
:011FC90022F5
:0B229400E2FF1221A7852080C2A222D9
:1021A7008F21A20F9200A20E9201A20D9202A20C01
:1021B7009203A20B9204A20A9205A2099206A20810
:0321C7009207225A
:0A1DF500789FEBF208EAF208E9F229
:101DFF00EFB40106087480F2801FEFB4020778A2D7
:101E0F007490F28014EFB4030778A27488F28009FB
:101E1F00EFB4040578A27498F278A2E2FF7D017CFA
:101E2F0000122206E478A3F2789FE2FB0808E2F999
:101E3F002401F218E2FA3400F212081AFF1222619A
:0B1E4F0078A3E204F2E2C3941040DD2F
:011E5A002265
:1022610078A4EFF2122274D2A0C2A1D2A278A41251
:0322710022942292
:1022060078A4EFF2ED4C6003122274C2A0C2A1D2F0
:07221600A278A41222942219
:10227400C2A0D2A1C2A27580FFD2A2E58020E0F064
:012284002237
:102091001222DED2A3C2A3D2A31220BF1220BF7F7D
:1020A1000C1220CB1222DE7F011220CB1222DE1273
:1020B10022DE7D017C007F061222060222DEE4FD83
:1020C100FC7F301222061222DE227D017C001222C8
:0220D1000622E5
:0822DE007F367EC7DEFEDFFC47
:0122E60022D5
:1017C700D0DEB8C42D2DC4EA2020202020202020E0
:1017D70000D0DEB8C42D2DD4C22020202020202008
:1017E7002000D0DEB8C42D2DC8D5202020202020F1
:1017F700202000D0DEB8C42D2DCAB1202020202003
:1018070020202000D0DEB8C42D2DB7D620202020E0
:101817002020202000D0DEB8C42D2DC3EB202020AF
:1018270020202020200031466C61673241646433F8
:1018370042756234524500C4D6D6D3D0DEB8C42D23
:101847002DC4EA2020202000C4D6D6D3D0DEB8C4C9
:101857002D2DD4C22020202000C4D6D6D3D0DEB868
:10186700C42D2DC8D52020202000C4D6D6D3D0DE45
:10187700B8C42D2DCAB12020202000C4D6D6D3D07D
:10188700DEB8C42D2DB7D62020202000C4D6D6D34D
:10189700D0DEB8C42D2DC3EB202020200081838506
:0B18A70087898B8D80828486888A8C64
:0922C00087100000170407002438
:101EBC00FEC4540F2430F2EE540F243008F20822E2
:101ECC00FFC4540F2430F2EF2274102FF8E2FE748A
:101EDC004E2FF8EEF222FFC4540F2430F2EF22E220
:101EEC00FEC4540F243022E4FD7F8E121FCEE42258
:101EFC00121BC77BFE7A00791E7F0222EF1392938E
:101F0C00EFC313FFD2922204FDF2744E2EF8EDF2C1
:011F1C0022A2
:041FCA002CF8E2FD10
:101FCE00C29400C29200D29400E4FE121F0800C216
:101FDE0092000EEEB408F4E4FEED139293EDC313EB
:0F1FEE00FDD29200C292000EEEB408EDC2940034
:011FFD0022C1
:10204C00C29400C29200D29400E4FD121F0800C298
:10205C0092000DEDB408F400E4FDA293E433FFC448
:10206C003333335480FCEEC3134CFED29200C29235
:10207C00000DEDB408E4C29400D29200C29300D2D9
:04208C009300AF0608
:01209000222D
:1021EB00121EF3FCEC9018AB93FF7410121FCA0C69
:0B21FB00ECB407F07D807F8E021FCE49
:10221D00E4FBEB9018A493FF12204C74102BF8EFF5
:06222D00F20BEBB407EC1C
:012233002288
:101C6A0012221D783E7432F2087430F27816E27845
:101C7A0040121ECC121EC4742DF27814E27843125C
:101C8A001ECC121EC4742DF27813E27846121EE29C
:101C9A00540F243008F27F0678487420F208DFFCDB
:101CAA007812E27800121EBC743AF27811E27803D4
:101CBA00121EBC743AF27810121EEB7806121EC27B
:101CCA007420F27800E2FEB4300478098010EEB491
:101CDA0031117801E2C394327809400280077441D5
:101CEA00F2800578097450F2780A744DF27F05780B
:071CFA000B7420F208DFFC6F
:011D010022BF
:101BC700781E7432F2087430F27854E27820121ECC
:101BD700E2121EC4742DF27852E2FFC4540F24306F
:101BE7007823F2EF121EC4742DF27851E2FFC45429
:101BF7000F24307826F2EF540F243008F27F06784E
:101C0700287420F208DFFC7850121EEB782E121E83
:101C1700C2743AF2784F121EEB7831121EC2743A30
:101C2700F2784E121EEB7834121EC27420F2782E10
:101C3700E2FEB4300478378010EEB43111782FE229
:101C4700C394327837400280077441F280057837B1
:101C57007450F27838744DF27F0578397420F208A1
:021C6700DFFCA0
:011C69002258
:100E7300E47870F212221DE4786EF2786EE2FF24B9
:100E830010121ED8786EE204F2E2B407EE1220913B
:100E93007870E270087BFF7A1779C780447870E234
:100EA300B401087BFF7A1779D880367870E2B402F0
:100EB300087BFF7A1779E980287870E2B403087B0E
:100EC300FF7A1779FA801A7870E2B404087BFF7A04
:100ED30018790B800C7870E2B4050B7BFF7A1879D4
:100EE3001C7F01121DF5121EFC121DF57BFE7A00FC
:100EF300792E7F03121DF57BFF7A18792D7F04125B
:100F03001DF5121F1D786FEFF2BF010E08E204F208
:100F1300E264066002C193F2C193786FE2FF640258
:020F2300704F0D
:100F250008E2FE700778727406F28034EEB40107A9
:100F350078727404F28029EEB4020778727403F2B1
:100F4500801EEEB4030778727402F28013EEB404C7
:100F55000778727401F28008EEB40504E47872F241
:0D0F65007872E2FE244EF8E27871121F133C
:070F7200C193EF640370530B
:100F79007870E2FF700778727406F28034EFB4017A
:100F89000778727404F28029EFB402077872740347
:100F9900F2801EEFB4030778727402F28013EFB483
:100FA900040778727401F28008EFB40504E47872DA
:100FB900F27872E2FF244EF8E214FE7871F2121E02
:010FC900DB4C
:100FCA00C193786FE264046002C193121EF3786ED3
:100FDA00F2786EE2FE9018AB93FF744E2EF8E2FDA3
:100FEA00121FCE786EE204F2E2C3940740E37D80DA
:050FFA007F8E021FCEF6
:10137200E4786FF212221DE4FF121ED50FEFB407BC
:10138200F8122091786FE270087BFF7A18793E801C
:1013920044786FE2B401087BFF7A18794F8036787F
:1013A2006FE2B402087BFF7A1879608028786FE2D6
:1013B200B403087BFF7A187971801A786FE2B4045B
:1013C200087BFF7A187982800C786FE2B4050B7B78
:1013D200FF7A1879937F01121DF5121EFC121DF57A
:1013E2007BFE7A00792E7F03121DF5121F1D786E87
:1013F200EFF2BF010C08E204F2E264067086F261C9
:0914020086786EE2FF6402704F6F
:10140B0008E2FE700778717406F28034EEB40107BF
:10141B0078717404F28029EEB4020778717403F2C8
:10142B00801EEEB4030778717402F28013EEB404DD
:10143B000778717401F28008EEB40504E47871F258
:0D144B007871E2FE244EF8E27870121F1353
:071458006186EF640370538D
:10145F00786FE2FF700778717406F28034EFB40191
:10146F000778717404F28029EFB40207787174035E
:10147F00F2801EEFB4030778717402F28013EFB499
:10148F00040778717401F28008EFB40504E47871F1
:10149F00F27871E2FF244EF8E214FE7870F2121E19
:0114AF00DB61
:1014B0006186786EE2640460026186E4FF744E2FF8
:0E14C000F8E2FE74172FF8EEF20FEFB408EF0B
:0114CE0022FB
:10218200E4FA12221DE4FF74102FF8E2FE74172FF6
:10219200F8E2B506010A0FEFB403ECEAB403037FD9
:0421A20001227F0097
:0121A6002216
:04211500AA05A90767
:1021190012221DE4FF121ED50FEFB408F8744E2ADF
:10212900F8E2FFE925E0FEEF2E14F2121EF3FCECB3
:102139009018AB93FF744E121FCA0CECB407F07DD4
:06214900807F8E021FCE14
:0E22850074172DF8E2FEEF25E0FFEE2F14F2A5
:012293002228
:100C3F00004D4AB8000D4A4C000DA5410025AAB63B
:100C4F0000056A49007AADBD00025D5200092D47CB
:100C5F00005C95BA000A954E000B4A43004B55377E
:100C6F00000AD54A00955ABF0004BA53000A5B48E0
:100C7F0000652BBC00052B50000A934500474AB96D
:100C8F000006AA4C000AD5410024DAB60004B64A81
:100C9F000069573D000A4E51000D2646005E933AFB
:100CAF00000D534D0005AA430036B53700096D4BB3
:100CBF0000B4AEBF0004AD53000A4D48006D25BC13
:100CCF00000D254F000D5244005DAA38000B5A4C01
:100CDF000000000000000000000000000000000005
:100CEF0000000000000000000000000000000000F5
:100CFF0000000000000000000000000000000000E5
:100D0F0000000000000000000000000000000000D4
:100D1F0000000000000000000000000000000000C4
:100D2F0096B4A5B5A6A6878888788786A5B3A5A506
:100D3F00A6A6888888788787A5B496A5969688787A
:100D4F007878878795B496A5969788787869788705
:100D5F0096B4A5B5A6A6878888788786A5B3A5A5D6
:100D6F00A6A6888888788787A5B496A5A69688882A
:100D7F007878878795B496A59697887878697887D5
:100D8F0096B4A5B5A6A6878887788786A5B3A5B597
:100D9F00A6A6888888788787A5B496A5A6968888FA
:100DAF007878878795B496A5969788787879788795
:100DBF0096B4A5B5A5A6878887788786A5B3A5B568
:100DCF00A6A6878888788787A5B496A5A6968888CB
:100DDF007878878795B496A5969788787879778766
:100DEF0095B4A5B4A5A6878887788786A5C3A5B52A
:100DFF00A6A6878888788787A5B4A6A5A69688888B
:100E0F0078788787A5B496A5969688787879778726
:100E1F0095B4A5B4A5A6978787788786A5C3A5B5EA
:100E2F00A6A6878888788786A5B4A5A5A69688885C
:100E3F0088788787A5B496A59696887878797787E6
:100E4F0095B4A5B4A5A69787877887960000001F4D
:100E5F00003B005A0078009700B500D400F3011151
:040E6F000130014EFF
:1018B200EB5FFFEA5EFEE95DFDE85CFCE4FBFAF942
:1018C200F8C302096724FBF58274EC3EF583120922
:1018D2009FE4FFFEED54F0FDE4FC78140209780861
:1018E200F278B4E2FE08E2780222F208F278C00846
:1018F200E214F9E4FFFE7D08FCA80102098B24FB37
:10190200F58274EC3EF5832278B6E2FE08E2FBAA89
:1019120006EA3395E0F9F822FFE2FC08C3E2FD9FF4
:10192200EE6480F8EC64809822E2FE08E278BDFF63
:10193200ED9FF2EC9E18F222FF78AFE2FB08E2FA8A
:1019420008E2F922E224FFF218E234FFF222E22452
:1019520001F218E2340022F9742F2FF582740D3E41
:10196200F583E493227855E25403FE08E254C078EA
:10197200062278C2E2FE08E2F4FFEEF42278BEE22A
:04198200FE08E22257
:1004160078B4EEF208EFF208ECF208EDF208EAF230
:01042600EBEA
:100427001218E1C333CE33CED8F912190012099F3F
:10043700EF5460FFE4FEFDFC7805120978E47B01C8
:100447001218C070211218E3C333CE33CED8F91275
:10045700190012099FEF541FFFEF24FF78BBF2E446
:1004670034FF18F2801E1218E3C333CE33CED8F907
:1004770012190012099FEF541FFFEF241E78BBF2D9
:10048700E43318F278B6E2FA08E2FB25E0FFEA3334
:10049700FE74592FF582740E3EF58308E2FE08E2DA
:1004A700FF7401932FFFE4933ECF24FF78BDF2EF53
:1004B70034FF18F278B4E2FE08E2FF7C007D0412F4
:1004C70008CEED4C7011D3EB9402EA64809480401F
:1004D7000678BD121950F278BAE2FE08E20812193E
:1004E7001A5002A1BE78BA12192B78B6E4F20804A2
:1004F700F278C0E4F20804F2E4081218ECC004C071
:1005070005C006C0071218E3C333CE33CED8F9129D
:1005170019001209AFD007D006D005D0041218B2BF
:1005270078BE7002A19FA1A612197F78BC12191A72
:10053700407578BE12192B78C11219501218E2C3F0
:1005470033CE33CED8F91218C7C006C00712190A1E
:10055700D007D006C3120967700E121974FE18F27D
:1005670008EFF24E7008800078B7121950F212188F
:10057700EFC004C005C006C0071218E3C333CE336B
:10058700CED8F91219001209AFD007D006D005D07E
:10059700041218B278BE7007F208741DF2A12FE496
:1005A700F208741EF2A12F78BDE2240179B9F3187D
:1005B700E2340019F3C1CF78BCE2FE08E2FFC3784A
:1005C700BBE29FF218E29EF278B512194678B6E4BC
:1005D700F2740C1218E1C333CE33CED8F91218C710
:1005E7001218BE78C07007F208740CF28006E4F2A5
:1005F70008740DF2E478C21218ECC004C005C006F6
:10060700C0071218E3C333CE33CED8F9121900123C
:1006170009AFD007D006D005D0041218B278BE7043
:1006270002C1A6C1AD12197FFF78BAE2FC08D31246
:10063700191F407A12197F78BB12193178C1121924
:100647004678C3E2700218E2700578B712194612AD
:1006570018E3C333CE33CED8F91218C7C006C00784
:1006670012190AD007D006C3120967700812197445
:1006770018F208EFF21218EFC004C005C006C00751
:100687001218E3C333CE33CED8F91219001209AFCB
:10069700D007D006D005D0041218B278BE7007F282
:1006A70008741DF2C12CE4F208741EF2C12C78BA4A
:1006B700E2FE08E2FFC378BFE29FFF18E29ECF2465
:1006C7000178B9F2E43F18F278B8E2FE08E2FF7861
:1006D70055EEF208EFF2AC06AD0778B6E2FE08E297
:1006E7007806C333CE33CED8F9FFEC4E7855F2ED0A
:1006F7004F1218E1C333CE33CED8F9248BF5827469
:10070700EE1218CDC006C00712190AD007D006C3CB
:0C0717001209677004FE7F0122E4FEFF5F
:0107230022B3
:101D8E00E478B2F208F2120904FFAEF090000212EB
:101D9E00092FFDACF090000412092FFBAAF01204DB
:101DAE0016EF4E6019121967CEC313CE13D8F9125F
:101DBE00193AEF12083308E4F20804F280111219EE
:101DCE0067CEC313CE13D8F912193AEF120833782F
:101DDE005508E2543F12193A900001EF1208457867
:061DEE00B2E2FE08E2FF74
:011DF40022CC
:10214F0078A6EEF208EFF2AF0508E4F208EFF2AF6F
:10215F000308E4F208EFF278A3E2F908E2FA08E2E2
:10216F0078AFC9F208EAF208E9F27BFE7A0079A6A5
:03217F00021D8EB0
:02200000AA052F
:102002007C007D0C120867EA2FFFEC3ECF243FCF05
:1020120034A2FEEBC3940F5016C3740F9B121959CE
:10202200C4540FB50106EA1425E0FF227F0022EB1B
:10203200B40F037F0022EB24F1121959540FB5019A
:0920420006EA25E014FF227F00EC
:01204B002272
:101F1D00D2A4D2A5D2A6D2A730A40930A50630A648
:101F2D000320A7431222DE20A407789F7401F280BC
:101F3D002220A507789F7402F2801820A607789FAB
:101F4D007403F2800E20A707789F7404F28004E4D6
:101F5D00789FF2789FE2600C30A4FD30A5FA30A690
:0B1F6D00F730A7F41222DE789FE2FF9D
:011F78002246
:0B229F0075F00A84E5F02430F20822FC
:0322F600DFFE22E6
:10000300D3EF9400EE940040147D6E7C00ED1D70E0
:0D001300011CED4C70F7EF1F70E61E80E33E
:0100200022BD
:0622EF0000007F50DFFE3D
:0122F50022C6
:10223400D2907F021222F6C2907F197E0012000310
:07224400D2907F1E0222F67A
:1021CA00E4FEFD2090FD3090FD7F081222F6EE25F8
:1021DA00E0FE3090010E2090FD0DEDB408E5AF064B
:0121EA0022D2
:101A520012223430900261133090FD7F321222F64E
:101A62001221CA786BEFF21221CAA9071221CAAC5D
:101A7200071221CAAB071221CA7870EFF27F19123E
:101A820022F6E9FF786BE22FFFE433FEEC75830068
:101A92002FFFE5833EFEEB2FFFE5833EFE7870E2EB
:101AA200B50719E583B50614786BE208F2AF0108B1
:101AB200EFF2AF0408EFF2AF0308EFF2787174525D
:101AC200F2087448F208743AF2786CE275F00A840B
:101AD20024307874F2786DE2787512229F7425F2C0
:101AE200087420F208F2087454F2087445F208747B
:101AF2004DF208743AF2786EE275F00A8424307876
:101B02007DF2786FE2787E12229F7460F20874434D
:071B1200F27BFE7A007971FD
:011B190022A9
:030023000214CFF5
:1014CF00C0E0C0F0C083C082C0D075D000C000C0E3
:0D14DF0001C002C003C004C005C006C00764
:1014EC00209802A1B4C29878C4E599F2E214B41819
:1014FC00004002A1A790150B25E05002058373A1B3
:10150C003BA13FA143A147A14BA14FA153A157A17F
:10151C005BA15FA164A16AA172A176A17AA17EA14F
:10152C0082A186A18AA18EA192A196A19BA1A17D47
:10153C000680277D06801E7D04801F7D0480167D1D
:10154C000380177D03800E7D02800F7D0280067D57
:10155C000180077D01E48008E4FD7F018003E4FD48
:10156C00FF12211580357D0680277D06801E7D04A7
:10157C00801F7D0480167D0380177D03800E7D0205
:10158C00800F7D0280067D0180077D01E48008E4E8
:10159C00FD7F018003E4FDFF12228578C4E2FFC3C6
:0815AC00941940047857EFF296
:1015B400D007D006D005D004D003D002D001D0008B
:0B15C400D0D0D082D083D0F0D0E03235
:10224B00759850E4F587758920758DFD758BFDD2DA
:06225B00AFD2ACD28E22CE
:0822E7008F993099FDC2992284
:10198600D1A1D4F1D2F4C0D620204B33C8B7C8CFEA
:1019960000312ED5FCBEC82020202020202020206B
:1019A6002A00322E576861746179612057616E741E
:1019B6002E2000332E577265636B696E6720426175
:1019C6006C6C2000312ED5FCBEC8202020202020A3
:1019D6002020202000322E576861746179612057DB
:1019E600616E742E2A00332E577265636B696E67BB
:1019F6002042616C6C2A00342ECBBCC4EE20202021
:101A06002020202020202A00342ECBBCC4EE20200B
:101A1600202020202020202000352ED3EACCECD315
:101A2600EACCEC20202020202A00352ED3EACCEC6C
:101A3600D3EACCEC20202020202000362ED3A1B5DE
:0C1A4600DAB0B2C0CFB0DFF0AF202A0051
:0922CA00007F117E1FDEFEDFFC27
:0122D30022E8
:0A22AA0000007F067E5DDEFEDFFC13
:0122B4002207
:0A22B50000007F167E80DEFEDFFCD5
:0122BF0022FC
:0922D400007F2C7E04DEFEDFFC1D
:0122DD0022DE
:0420D300AD07AC06A3
:1020D700E4FBFAC2AFD2951222B5C2951222D4D22E
:1020E70095ED30E00A1222CAC2951222AA80081280
:1020F70022AAC2951222CAECC313FCED13FD0BBB37
:0D21070000010AEB64084A70D6D295D2AFF1
:0121140022A8
:1016CB00786E7401F27BFF7A1979867F01121DF512
:1016DB00786EE2B401137BFF7A1979977F02121DA2
:1016EB00F57BFF7A1979A8800D786EE2B40210129F
:1016FB00179B7A1979DB1217BF7A1979B9E16E78D2
:10170B006EE2B4031012179B7A1979A81217BF7ADD
:10171B001979EC804E786EE2B404167BFF7A197956
:10172B00A87F02121DF57F031217A97A1979FD8084
:10173B0032786EE2B405107F021217A97F031217DD
:10174B00B57A1A791F801C786EE2B4061B7BFF7F7B
:10175B00021217B57A1A79307F03121DF57BFF7AC7
:10176B001A79417F04121DF5121F1D786FEFF2BF1E
:10177B00020F18E204F2E264076002C1D004F2C166
:0F178B00D0786FE264036002C1D018E27858F2A0
:10179A00227BFF7A1979CA7F02121DF57BFF227B11
:1017AA00FF7A1979B9121DF57BFF227A1A790E127E
:0D17BA001DF57BFF227F03121DF57BFF2232
:101D0E000211CAE493A3F8E493A34003F68001F210
:101D1E0008DFF48029E493A3F85407240CC8C333D6
:101D2E00C4540F4420C8834004F456800146F6DFA5
:101D3E00E4800B01020408102040809022C0E47E53
:101D4E00019360BCA3FF543F30E509541FFEE4939A
:101D5E00A360010ECF54C025E060A840B8E493A361
:101D6E00FAE493A3F8E493A3C8C582C8CAC583CA8C
:101D7E00F0A3C8C582C8CAC583CADFE9DEE780BE44
:0122C9000014
:10072400E709F608DFFA8046E709F208DFFA803EB7
:1007340088828C83E709F0A3DFFA8032E309F608A4
:10074400DFFA8078E309F208DFFA807088828C830C
:10075400E309F0A3DFFA806489828A83E0A3F608C0
:10076400DFFA805889828A83E0A3F208DFFA804C9A
:1007740080D280FA80C680D4806980F28033801071
:1007840080A680EA809A80A880DA80E280CA8033DA
:1007940089828A83ECFAE493A3C8C582C8CCC58352
:1007A400CCF0A3C8C582C8CCC583CCDFE9DEE78022
:1007B4000D89828A83E493A3F608DFF9ECFAA9F0A1
:1007C400EDFB2289828A83ECFAE0A3C8C582C8CCF7
:1007D400C583CCF0A3C8C582C8CCC583CCDFEADE10
:1007E400E880DB89828A83E493A3F208DFF980CC72
:1007F40088F0EF60010E4E60C388F0ED2402B4046B
:100804000050B9F582EB2402B4040050AF23234511
:06081400822390077473BB
:10081A00BB010689828A83E0225002E722BBFE02DC
:09082A00E32289828A83E493220F
:10083300BB010689828A83F0225002F722BBFE01A4
:02084300F3229E
:10084500F8BB010DE58229F582E5833AF583E8F0E9
:10085500225006E92582C8F622BBFE05E92582C895
:02086500F2227D
:10086700EF8DF0A4A8F0CF8CF0A428CE8DF0A42EA5
:02087700FE225F
:10087900BC000BBE0029EF8DF084FFADF022E4CC63
:10088900F875F008EF2FFFEE33FEEC33FCEE9DEC2C
:10089900984005FCEE9DFE0FD5F0E9E4CEFD22ED72
:1008A900F8F5F0EE8420D21CFEADF075F008EF2FBC
:1008B900FFED33FD4007985006D5F0F222C398FDAD
:0508C9000FD5F0EA224A
:1008CE00C2D5EC30E709B2D5E4C39DFDE49CFCEE45
:1008DE0030E715B2D5E4C39FFFE49EFE120879C33C
:1008EE00E49DFDE49CFC800312087930D507C3E437
:0608FE009FFFE49EFE22B4
:10090400BB010A89828A83E0F5F0A3E022500687BE
:10091400F009E71922BBFE07E3F5F009E319228980
:0B092400828A83E493F5F074019322B3
:10092F00BB0110E58229F582E5833AF583E0F5F006
:10093F00A3E0225009E92582F886F008E622BBFEE3
:10094F000AE92582F8E2F5F008E222E5832AF58329
:08095F00E993F5F0A3E99322EE
:10096700EB9FF5F0EA9E42F0E99D42F0E89C45F0E6
:01097700225D
:10097800E8600FECC313FCED13FDEE13FEEF13FF5D
:03098800D8F12281
:10098B00E86010ECA2E713FCED13FDEE13FEEF1382
:04099B00FFD8F0226F
:10099F00E493FC740193FD740293FE740393FF229E
:1009AF00E493F8740193F9740293FA740393FB229E
:00000001FF
